{
  "_format": "hh-sol-artifact-1",
  "contractName": "Transactions",
  "sourceName": "contracts/Transactions.sol",
  "abi": [
    {
      "anonymous": false,
      "inputs": [
        {
          "indexed": false,
          "internalType": "address",
          "name": "from",
          "type": "address"
        },
        {
          "indexed": false,
          "internalType": "address",
          "name": "receiver",
          "type": "address"
        },
        {
          "indexed": false,
          "internalType": "uint256",
          "name": "amount",
          "type": "uint256"
        },
        {
          "indexed": false,
          "internalType": "string",
          "name": "message",
          "type": "string"
        },
        {
          "indexed": false,
          "internalType": "uint256",
          "name": "timestamp",
          "type": "uint256"
        },
        {
          "indexed": false,
          "internalType": "string",
          "name": "keyword",
          "type": "string"
        }
      ],
      "name": "Transfer",
      "type": "event"
    },
    {
      "inputs": [
        {
          "internalType": "address payable",
          "name": "receiver",
          "type": "address"
        },
        {
          "internalType": "uint256",
          "name": "amount",
          "type": "uint256"
        },
        {
          "internalType": "string",
          "name": "message",
          "type": "string"
        },
        {
          "internalType": "string",
          "name": "keyword",
          "type": "string"
        },
        {
          "internalType": "uint32",
          "name": "jobId",
          "type": "uint32"
        }
      ],
      "name": "addToBlockchain",
      "outputs": [],
      "stateMutability": "nonpayable",
      "type": "function"
    },
    {
      "inputs": [],
      "name": "getAllJobVerifications",
      "outputs": [
        {
          "components": [
            {
              "internalType": "address",
              "name": "lg",
              "type": "address"
            },
            {
              "internalType": "address",
              "name": "client",
              "type": "address"
            },
            {
              "internalType": "uint32",
              "name": "jobId",
              "type": "uint32"
            }
          ],
          "internalType": "struct Transactions.JobVerification[]",
          "name": "",
          "type": "tuple[]"
        }
      ],
      "stateMutability": "view",
      "type": "function"
    },
    {
      "inputs": [],
      "name": "getAllTransactions",
      "outputs": [
        {
          "components": [
            {
              "internalType": "address",
              "name": "sender",
              "type": "address"
            },
            {
              "internalType": "address",
              "name": "receiver",
              "type": "address"
            },
            {
              "internalType": "uint256",
              "name": "amount",
              "type": "uint256"
            },
            {
              "internalType": "string",
              "name": "message",
              "type": "string"
            },
            {
              "internalType": "uint256",
              "name": "timestamp",
              "type": "uint256"
            },
            {
              "internalType": "string",
              "name": "keyword",
              "type": "string"
            },
            {
              "internalType": "uint32",
              "name": "jobId",
              "type": "uint32"
            }
          ],
          "internalType": "struct Transactions.TransferStruct[]",
          "name": "",
          "type": "tuple[]"
        }
      ],
      "stateMutability": "view",
      "type": "function"
    },
    {
      "inputs": [],
      "name": "getTransactionCount",
      "outputs": [
        {
          "internalType": "uint256",
          "name": "",
          "type": "uint256"
        }
      ],
      "stateMutability": "view",
      "type": "function"
    },
    {
      "inputs": [
        {
          "internalType": "address",
          "name": "lg",
          "type": "address"
        },
        {
          "internalType": "address",
          "name": "client",
          "type": "address"
        },
        {
          "internalType": "uint32",
          "name": "jobId",
          "type": "uint32"
        }
      ],
      "name": "verifyJob",
      "outputs": [],
      "stateMutability": "nonpayable",
      "type": "function"
    }
  ],
  "bytecode": "0x608060405234801561001057600080fd5b506114db806100206000396000f3fe608060405234801561001057600080fd5b50600436106100575760003560e01c806327506f531461005c5780632e7700f01461007a5780635a45705014610098578063915456da146100b4578063f63b5d8b146100d2575b600080fd5b6100646100ee565b6040516100719190611087565b60405180910390f35b610082610357565b60405161008f91906110e9565b60405180910390f35b6100b260048036038101906100ad9190610c51565b610360565b005b6100bc610502565b6040516100c99190611065565b60405180910390f35b6100ec60048036038101906100e79190610baa565b610633565b005b60606001805480602002602001604051908101604052809291908181526020016000905b8282101561034e57838290600052602060002090600702016040518060e00160405290816000820160009054906101000a900473ffffffffffffffffffffffffffffffffffffffff1673ffffffffffffffffffffffffffffffffffffffff1673ffffffffffffffffffffffffffffffffffffffff1681526020016001820160009054906101000a900473ffffffffffffffffffffffffffffffffffffffff1673ffffffffffffffffffffffffffffffffffffffff1673ffffffffffffffffffffffffffffffffffffffff168152602001600282015481526020016003820180546101fb90611330565b80601f016020809104026020016040519081016040528092919081815260200182805461022790611330565b80156102745780601f1061024957610100808354040283529160200191610274565b820191906000526020600020905b81548152906001019060200180831161025757829003601f168201915b505050505081526020016004820154815260200160058201805461029790611330565b80601f01602080910402602001604051908101604052809291908181526020018280546102c390611330565b80156103105780601f106102e557610100808354040283529160200191610310565b820191906000526020600020905b8154815290600101906020018083116102f357829003601f168201915b505050505081526020016006820160009054906101000a900463ffffffff1663ffffffff1663ffffffff168152505081526020019060010190610112565b50505050905090565b60008054905090565b8273ffffffffffffffffffffffffffffffffffffffff163373ffffffffffffffffffffffffffffffffffffffff16146103ce576040517f08c379a00000000000000000000000000000000000000000000000000000000081526004016103c5906110c9565b60405180910390fd5b600260405180606001604052808573ffffffffffffffffffffffffffffffffffffffff1681526020018473ffffffffffffffffffffffffffffffffffffffff1681526020018363ffffffff16815250908060018154018082558091505060019003906000526020600020906002020160009091909190915060008201518160000160006101000a81548173ffffffffffffffffffffffffffffffffffffffff021916908373ffffffffffffffffffffffffffffffffffffffff16021790555060208201518160010160006101000a81548173ffffffffffffffffffffffffffffffffffffffff021916908373ffffffffffffffffffffffffffffffffffffffff16021790555060408201518160010160146101000a81548163ffffffff021916908363ffffffff1602179055505050505050565b60606002805480602002602001604051908101604052809291908181526020016000905b8282101561062a57838290600052602060002090600202016040518060600160405290816000820160009054906101000a900473ffffffffffffffffffffffffffffffffffffffff1673ffffffffffffffffffffffffffffffffffffffff1673ffffffffffffffffffffffffffffffffffffffff1681526020016001820160009054906101000a900473ffffffffffffffffffffffffffffffffffffffff1673ffffffffffffffffffffffffffffffffffffffff1673ffffffffffffffffffffffffffffffffffffffff1681526020016001820160149054906101000a900463ffffffff1663ffffffff1663ffffffff168152505081526020019060010190610526565b50505050905090565b6000805b600280549050811015610813573373ffffffffffffffffffffffffffffffffffffffff1660028281548110610695577f4e487b7100000000000000000000000000000000000000000000000000000000600052603260045260246000fd5b906000526020600020906002020160000160009054906101000a900473ffffffffffffffffffffffffffffffffffffffff1673ffffffffffffffffffffffffffffffffffffffff1614801561078057508673ffffffffffffffffffffffffffffffffffffffff1660028281548110610736577f4e487b7100000000000000000000000000000000000000000000000000000000600052603260045260246000fd5b906000526020600020906002020160010160009054906101000a900473ffffffffffffffffffffffffffffffffffffffff1673ffffffffffffffffffffffffffffffffffffffff16145b80156107f257508263ffffffff16600282815481106107c8577f4e487b7100000000000000000000000000000000000000000000000000000000600052603260045260246000fd5b906000526020600020906002020160010160149054906101000a900463ffffffff1663ffffffff16145b156108005760019150610813565b808061080b90611362565b915050610637565b5080610854576040517f08c379a000000000000000000000000000000000000000000000000000000000815260040161084b906110a9565b60405180910390fd5b60016000808282546108669190611204565b9250508190555060016040518060e001604052803373ffffffffffffffffffffffffffffffffffffffff1681526020018873ffffffffffffffffffffffffffffffffffffffff1681526020018781526020018681526020014281526020018581526020018463ffffffff16815250908060018154018082558091505060019003906000526020600020906007020160009091909190915060008201518160000160006101000a81548173ffffffffffffffffffffffffffffffffffffffff021916908373ffffffffffffffffffffffffffffffffffffffff16021790555060208201518160010160006101000a81548173ffffffffffffffffffffffffffffffffffffffff021916908373ffffffffffffffffffffffffffffffffffffffff1602179055506040820151816002015560608201518160030190805190602001906109b1929190610a4b565b506080820151816004015560a08201518160050190805190602001906109d8929190610a4b565b5060c08201518160060160006101000a81548163ffffffff021916908363ffffffff16021790555050507f416cfa4330a4565f45c2fd2dd4826a83a37443aba2ce6f79477c7355afac35fa338787874288604051610a3b96959493929190610ff6565b60405180910390a1505050505050565b828054610a5790611330565b90600052602060002090601f016020900481019282610a795760008555610ac0565b82601f10610a9257805160ff1916838001178555610ac0565b82800160010185558215610ac0579182015b82811115610abf578251825591602001919060010190610aa4565b5b509050610acd9190610ad1565b5090565b5b80821115610aea576000816000905550600101610ad2565b5090565b6000610b01610afc84611135565b611104565b905082815260208101848484011115610b1957600080fd5b610b248482856112ee565b509392505050565b600081359050610b3b81611449565b92915050565b600081359050610b5081611460565b92915050565b600082601f830112610b6757600080fd5b8135610b77848260208601610aee565b91505092915050565b600081359050610b8f81611477565b92915050565b600081359050610ba48161148e565b92915050565b600080600080600060a08688031215610bc257600080fd5b6000610bd088828901610b41565b9550506020610be188828901610b80565b945050604086013567ffffffffffffffff811115610bfe57600080fd5b610c0a88828901610b56565b935050606086013567ffffffffffffffff811115610c2757600080fd5b610c3388828901610b56565b9250506080610c4488828901610b95565b9150509295509295909350565b600080600060608486031215610c6657600080fd5b6000610c7486828701610b2c565b9350506020610c8586828701610b2c565b9250506040610c9686828701610b95565b9150509250925092565b6000610cac8383610ee4565b60608301905092915050565b6000610cc48383610f26565b905092915050565b610cd5816112b8565b82525050565b610ce48161125a565b82525050565b610cf38161125a565b82525050565b6000610d0482611185565b610d0e81856111c0565b9350610d1983611165565b8060005b83811015610d4a578151610d318882610ca0565b9750610d3c836111a6565b925050600181019050610d1d565b5085935050505092915050565b6000610d6282611190565b610d6c81856111d1565b935083602082028501610d7e85611175565b8060005b85811015610dba5784840389528151610d9b8582610cb8565b9450610da6836111b3565b925060208a01995050600181019050610d82565b50829750879550505050505092915050565b6000610dd78261119b565b610de181856111e2565b9350610df18185602086016112fd565b610dfa81611438565b840191505092915050565b6000610e108261119b565b610e1a81856111f3565b9350610e2a8185602086016112fd565b610e3381611438565b840191505092915050565b6000610e4b6013836111f3565b91507f4a6f62206973206e6f74207665726966696564000000000000000000000000006000830152602082019050919050565b6000610e8b6023836111f3565b91507f4f6e6c79206c6f63616c676f7665726e6d656e742063616e207665726966792060008301527f6a6f6200000000000000000000000000000000000000000000000000000000006020830152604082019050919050565b606082016000820151610efa6000850182610cdb565b506020820151610f0d6020850182610cdb565b506040820151610f206040850182610fe7565b50505050565b600060e083016000830151610f3e6000860182610cdb565b506020830151610f516020860182610cdb565b506040830151610f646040860182610fc9565b5060608301518482036060860152610f7c8282610dcc565b9150506080830151610f916080860182610fc9565b5060a083015184820360a0860152610fa98282610dcc565b91505060c0830151610fbe60c0860182610fe7565b508091505092915050565b610fd28161129e565b82525050565b610fe18161129e565b82525050565b610ff0816112a8565b82525050565b600060c08201905061100b6000830189610cea565b6110186020830188610ccc565b6110256040830187610fd8565b81810360608301526110378186610e05565b90506110466080830185610fd8565b81810360a08301526110588184610e05565b9050979650505050505050565b6000602082019050818103600083015261107f8184610cf9565b905092915050565b600060208201905081810360008301526110a18184610d57565b905092915050565b600060208201905081810360008301526110c281610e3e565b9050919050565b600060208201905081810360008301526110e281610e7e565b9050919050565b60006020820190506110fe6000830184610fd8565b92915050565b6000604051905081810181811067ffffffffffffffff8211171561112b5761112a611409565b5b8060405250919050565b600067ffffffffffffffff8211156111505761114f611409565b5b601f19601f8301169050602081019050919050565b6000819050602082019050919050565b6000819050602082019050919050565b600081519050919050565b600081519050919050565b600081519050919050565b6000602082019050919050565b6000602082019050919050565b600082825260208201905092915050565b600082825260208201905092915050565b600082825260208201905092915050565b600082825260208201905092915050565b600061120f8261129e565b915061121a8361129e565b9250827fffffffffffffffffffffffffffffffffffffffffffffffffffffffffffffffff0382111561124f5761124e6113ab565b5b828201905092915050565b60006112658261127e565b9050919050565b60006112778261127e565b9050919050565b600073ffffffffffffffffffffffffffffffffffffffff82169050919050565b6000819050919050565b600063ffffffff82169050919050565b60006112c3826112ca565b9050919050565b60006112d5826112dc565b9050919050565b60006112e78261127e565b9050919050565b82818337600083830152505050565b60005b8381101561131b578082015181840152602081019050611300565b8381111561132a576000848401525b50505050565b6000600282049050600182168061134857607f821691505b6020821081141561135c5761135b6113da565b5b50919050565b600061136d8261129e565b91507fffffffffffffffffffffffffffffffffffffffffffffffffffffffffffffffff8214156113a05761139f6113ab565b5b600182019050919050565b7f4e487b7100000000000000000000000000000000000000000000000000000000600052601160045260246000fd5b7f4e487b7100000000000000000000000000000000000000000000000000000000600052602260045260246000fd5b7f4e487b7100000000000000000000000000000000000000000000000000000000600052604160045260246000fd5b6000601f19601f8301169050919050565b6114528161125a565b811461145d57600080fd5b50565b6114698161126c565b811461147457600080fd5b50565b6114808161129e565b811461148b57600080fd5b50565b611497816112a8565b81146114a257600080fd5b5056fea26469706673582212203b7c0a2a65adce0329968627b67815c7cc35e4d36adc5c449c05264c6d1a8b6064736f6c63430008000033",
  "linkReferences": {},
  "deployedLinkReferences": {}
}