{
  "_format": "hh-sol-artifact-1",
  "contractName": "Transactions",
  "sourceName": "contracts/Transactions.sol",
  "abi": [
    {
      "anonymous": false,
      "inputs": [
        {
          "indexed": false,
          "internalType": "address",
          "name": "from",
          "type": "address"
        },
        {
          "indexed": false,
          "internalType": "address",
          "name": "receiver",
          "type": "address"
        },
        {
          "indexed": false,
          "internalType": "uint256",
          "name": "amount",
          "type": "uint256"
        },
        {
          "indexed": false,
          "internalType": "string",
          "name": "message",
          "type": "string"
        },
        {
          "indexed": false,
          "internalType": "uint256",
          "name": "timestamp",
          "type": "uint256"
        },
        {
          "indexed": false,
          "internalType": "string",
          "name": "keyword",
          "type": "string"
        },
        {
          "indexed": false,
          "internalType": "uint256",
          "name": "jobId",
          "type": "uint256"
        }
      ],
      "name": "Transfer",
      "type": "event"
    },
    {
      "inputs": [
        {
          "internalType": "address payable",
          "name": "receiver",
          "type": "address"
        },
        {
          "internalType": "uint256",
          "name": "amount",
          "type": "uint256"
        },
        {
          "internalType": "string",
          "name": "message",
          "type": "string"
        },
        {
          "internalType": "string",
          "name": "keyword",
          "type": "string"
        },
        {
          "internalType": "uint256",
          "name": "jobId",
          "type": "uint256"
        }
      ],
      "name": "addToBlockchain",
      "outputs": [],
      "stateMutability": "nonpayable",
      "type": "function"
    },
    {
      "inputs": [],
      "name": "getAllTransactions",
      "outputs": [
        {
          "components": [
            {
              "internalType": "address",
              "name": "sender",
              "type": "address"
            },
            {
              "internalType": "address",
              "name": "receiver",
              "type": "address"
            },
            {
              "internalType": "uint256",
              "name": "amount",
              "type": "uint256"
            },
            {
              "internalType": "string",
              "name": "message",
              "type": "string"
            },
            {
              "internalType": "uint256",
              "name": "timestamp",
              "type": "uint256"
            },
            {
              "internalType": "string",
              "name": "keyword",
              "type": "string"
            },
            {
              "internalType": "uint256",
              "name": "jobId",
              "type": "uint256"
            }
          ],
          "internalType": "struct Transactions.TransferStruct[]",
          "name": "",
          "type": "tuple[]"
        }
      ],
      "stateMutability": "view",
      "type": "function"
    },
    {
      "inputs": [],
      "name": "getTransactionCount",
      "outputs": [
        {
          "internalType": "uint256",
          "name": "",
          "type": "uint256"
        }
      ],
      "stateMutability": "view",
      "type": "function"
    }
  ],
  "bytecode": "0x608060405234801561001057600080fd5b50610ec8806100206000396000f3fe608060405234801561001057600080fd5b50600436106100415760003560e01c806327506f53146100465780632e7700f0146100645780639c9831bc14610082575b600080fd5b61004e61009e565b60405161005b9190610b14565b60405180910390f35b61006c6102eb565b6040516100799190610b96565b60405180910390f35b61009c60048036038101906100979190610721565b6102f4565b005b60606001805480602002602001604051908101604052809291908181526020016000905b828210156102e257838290600052602060002090600702016040518060e00160405290816000820160009054906101000a900473ffffffffffffffffffffffffffffffffffffffff1673ffffffffffffffffffffffffffffffffffffffff1673ffffffffffffffffffffffffffffffffffffffff1681526020016001820160009054906101000a900473ffffffffffffffffffffffffffffffffffffffff1673ffffffffffffffffffffffffffffffffffffffff1673ffffffffffffffffffffffffffffffffffffffff168152602001600282015481526020016003820180546101ab90610d94565b80601f01602080910402602001604051908101604052809291908181526020018280546101d790610d94565b80156102245780601f106101f957610100808354040283529160200191610224565b820191906000526020600020905b81548152906001019060200180831161020757829003601f168201915b505050505081526020016004820154815260200160058201805461024790610d94565b80601f016020809104026020016040519081016040528092919081815260200182805461027390610d94565b80156102c05780601f10610295576101008083540402835291602001916102c0565b820191906000526020600020905b8154815290600101906020018083116102a357829003601f168201915b50505050508152602001600682015481525050815260200190600101906100c2565b50505050905090565b60008054905090565b6102fe3382610512565b61033d576040517f08c379a000000000000000000000000000000000000000000000000000000000815260040161033490610b36565b60405180910390fd5b600160008082825461034f9190610c78565b9250508190555060016040518060e001604052803373ffffffffffffffffffffffffffffffffffffffff1681526020018773ffffffffffffffffffffffffffffffffffffffff16815260200186815260200185815260200142815260200184815260200183815250908060018154018082558091505060019003906000526020600020906007020160009091909190915060008201518160000160006101000a81548173ffffffffffffffffffffffffffffffffffffffff021916908373ffffffffffffffffffffffffffffffffffffffff16021790555060208201518160010160006101000a81548173ffffffffffffffffffffffffffffffffffffffff021916908373ffffffffffffffffffffffffffffffffffffffff1602179055506040820151816002015560608201518160030190805190602001906104949291906105ec565b506080820151816004015560a08201518160050190805190602001906104bb9291906105ec565b5060c0820151816006015550507f8540f43ea1b9c35fbacd3d28c2f68aa72528ec24969a0f941618c8e6e2048ba5338686864287876040516105039796959493929190610a97565b60405180910390a15050505050565b60006002600083815260200190815260200160002060009054906101000a900460ff16610574576040517f08c379a000000000000000000000000000000000000000000000000000000000815260040161056b90610b56565b60405180910390fd5b8273ffffffffffffffffffffffffffffffffffffffff163373ffffffffffffffffffffffffffffffffffffffff16146105e2576040517f08c379a00000000000000000000000000000000000000000000000000000000081526004016105d990610b76565b60405180910390fd5b6001905092915050565b8280546105f890610d94565b90600052602060002090601f01602090048101928261061a5760008555610661565b82601f1061063357805160ff1916838001178555610661565b82800160010185558215610661579182015b82811115610660578251825591602001919060010190610645565b5b50905061066e9190610672565b5090565b5b8082111561068b576000816000905550600101610673565b5090565b60006106a261069d84610be2565b610bb1565b9050828152602081018484840111156106ba57600080fd5b6106c5848285610d52565b509392505050565b6000813590506106dc81610e64565b92915050565b600082601f8301126106f357600080fd5b813561070384826020860161068f565b91505092915050565b60008135905061071b81610e7b565b92915050565b600080600080600060a0868803121561073957600080fd5b6000610747888289016106cd565b95505060206107588882890161070c565b945050604086013567ffffffffffffffff81111561077557600080fd5b610781888289016106e2565b935050606086013567ffffffffffffffff81111561079e57600080fd5b6107aa888289016106e2565b92505060806107bb8882890161070c565b9150509295509295909350565b60006107d483836109d6565b905092915050565b6107e581610d1c565b82525050565b6107f481610cce565b82525050565b61080381610cce565b82525050565b600061081482610c22565b61081e8185610c45565b93508360208202850161083085610c12565b8060005b8581101561086c578484038952815161084d85826107c8565b945061085883610c38565b925060208a01995050600181019050610834565b50829750879550505050505092915050565b600061088982610c2d565b6108938185610c56565b93506108a3818560208601610d61565b6108ac81610e53565b840191505092915050565b60006108c282610c2d565b6108cc8185610c67565b93506108dc818560208601610d61565b6108e581610e53565b840191505092915050565b60006108fd601783610c67565b91507f4a6f6220766572696669636174696f6e206661696c65640000000000000000006000830152602082019050919050565b600061093d601183610c67565b91507f4a6f62206e6f7420636f6d706c657465640000000000000000000000000000006000830152602082019050919050565b600061097d602383610c67565b91507f4f6e6c79206c6f63616c676f7665726e6d656e742063616e207665726966792060008301527f6a6f6200000000000000000000000000000000000000000000000000000000006020830152604082019050919050565b600060e0830160008301516109ee60008601826107eb565b506020830151610a0160208601826107eb565b506040830151610a146040860182610a79565b5060608301518482036060860152610a2c828261087e565b9150506080830151610a416080860182610a79565b5060a083015184820360a0860152610a59828261087e565b91505060c0830151610a6e60c0860182610a79565b508091505092915050565b610a8281610d12565b82525050565b610a9181610d12565b82525050565b600060e082019050610aac600083018a6107fa565b610ab960208301896107dc565b610ac66040830188610a88565b8181036060830152610ad881876108b7565b9050610ae76080830186610a88565b81810360a0830152610af981856108b7565b9050610b0860c0830184610a88565b98975050505050505050565b60006020820190508181036000830152610b2e8184610809565b905092915050565b60006020820190508181036000830152610b4f816108f0565b9050919050565b60006020820190508181036000830152610b6f81610930565b9050919050565b60006020820190508181036000830152610b8f81610970565b9050919050565b6000602082019050610bab6000830184610a88565b92915050565b6000604051905081810181811067ffffffffffffffff82111715610bd857610bd7610e24565b5b8060405250919050565b600067ffffffffffffffff821115610bfd57610bfc610e24565b5b601f19601f8301169050602081019050919050565b6000819050602082019050919050565b600081519050919050565b600081519050919050565b6000602082019050919050565b600082825260208201905092915050565b600082825260208201905092915050565b600082825260208201905092915050565b6000610c8382610d12565b9150610c8e83610d12565b9250827fffffffffffffffffffffffffffffffffffffffffffffffffffffffffffffffff03821115610cc357610cc2610dc6565b5b828201905092915050565b6000610cd982610cf2565b9050919050565b6000610ceb82610cf2565b9050919050565b600073ffffffffffffffffffffffffffffffffffffffff82169050919050565b6000819050919050565b6000610d2782610d2e565b9050919050565b6000610d3982610d40565b9050919050565b6000610d4b82610cf2565b9050919050565b82818337600083830152505050565b60005b83811015610d7f578082015181840152602081019050610d64565b83811115610d8e576000848401525b50505050565b60006002820490506001821680610dac57607f821691505b60208210811415610dc057610dbf610df5565b5b50919050565b7f4e487b7100000000000000000000000000000000000000000000000000000000600052601160045260246000fd5b7f4e487b7100000000000000000000000000000000000000000000000000000000600052602260045260246000fd5b7f4e487b7100000000000000000000000000000000000000000000000000000000600052604160045260246000fd5b6000601f19601f8301169050919050565b610e6d81610ce0565b8114610e7857600080fd5b50565b610e8481610d12565b8114610e8f57600080fd5b5056fea2646970667358221220689dd3f0c1426dbf478901bad1ec11d08f06dad2b4ff09761f171ba34f3de64164736f6c63430008000033",
  "linkReferences": {},
  "deployedLinkReferences": {}
}