{
  "_format": "hh-sol-artifact-1",
  "contractName": "Transactions",
  "sourceName": "contracts/Transactions.sol",
  "abi": [
    {
      "anonymous": false,
      "inputs": [
        {
          "indexed": false,
          "internalType": "address",
          "name": "from",
          "type": "address"
        },
        {
          "indexed": false,
          "internalType": "address",
          "name": "receiver",
          "type": "address"
        },
        {
          "indexed": false,
          "internalType": "uint256",
          "name": "amount",
          "type": "uint256"
        },
        {
          "indexed": false,
          "internalType": "string",
          "name": "message",
          "type": "string"
        },
        {
          "indexed": false,
          "internalType": "uint256",
          "name": "timestamp",
          "type": "uint256"
        },
        {
          "indexed": false,
          "internalType": "string",
          "name": "keyword",
          "type": "string"
        }
      ],
      "name": "Transfer",
      "type": "event"
    },
    {
      "inputs": [
        {
          "internalType": "address payable",
          "name": "receiver",
          "type": "address"
        },
        {
          "internalType": "uint256",
          "name": "amount",
          "type": "uint256"
        },
        {
          "internalType": "string",
          "name": "message",
          "type": "string"
        },
        {
          "internalType": "string",
          "name": "keyword",
          "type": "string"
        },
        {
          "internalType": "uint32",
          "name": "jobId",
          "type": "uint32"
        }
      ],
      "name": "addToBlockchain",
      "outputs": [],
      "stateMutability": "nonpayable",
      "type": "function"
    },
    {
      "inputs": [],
      "name": "getAllJobVerifications",
      "outputs": [
        {
          "components": [
            {
              "internalType": "address",
              "name": "lg",
              "type": "address"
            },
            {
              "internalType": "address",
              "name": "client",
              "type": "address"
            },
            {
              "internalType": "uint32",
              "name": "jobId",
              "type": "uint32"
            }
          ],
          "internalType": "struct Transactions.JobVerification[]",
          "name": "",
          "type": "tuple[]"
        }
      ],
      "stateMutability": "view",
      "type": "function"
    },
    {
      "inputs": [],
      "name": "getAllTransactions",
      "outputs": [
        {
          "components": [
            {
              "internalType": "address",
              "name": "sender",
              "type": "address"
            },
            {
              "internalType": "address",
              "name": "receiver",
              "type": "address"
            },
            {
              "internalType": "uint256",
              "name": "amount",
              "type": "uint256"
            },
            {
              "internalType": "string",
              "name": "message",
              "type": "string"
            },
            {
              "internalType": "uint256",
              "name": "timestamp",
              "type": "uint256"
            },
            {
              "internalType": "string",
              "name": "keyword",
              "type": "string"
            },
            {
              "internalType": "uint32",
              "name": "jobId",
              "type": "uint32"
            }
          ],
          "internalType": "struct Transactions.TransferStruct[]",
          "name": "",
          "type": "tuple[]"
        }
      ],
      "stateMutability": "view",
      "type": "function"
    },
    {
      "inputs": [],
      "name": "getTransactionCount",
      "outputs": [
        {
          "internalType": "uint256",
          "name": "",
          "type": "uint256"
        }
      ],
      "stateMutability": "view",
      "type": "function"
    },
    {
      "inputs": [
        {
          "internalType": "address payable",
          "name": "lg",
          "type": "address"
        },
        {
          "internalType": "address payable",
          "name": "client",
          "type": "address"
        },
        {
          "internalType": "uint32",
          "name": "jobId",
          "type": "uint32"
        }
      ],
      "name": "verifyJob",
      "outputs": [
        {
          "internalType": "bytes32",
          "name": "",
          "type": "bytes32"
        }
      ],
      "stateMutability": "nonpayable",
      "type": "function"
    }
  ],
  "bytecode": "0x608060405234801561001057600080fd5b50611318806100206000396000f3fe608060405234801561001057600080fd5b50600436106100575760003560e01c806327506f531461005c5780632e7700f01461007a5780635a45705014610098578063915456da146100c8578063f63b5d8b146100e6575b600080fd5b610064610102565b6040516100719190610ecf565b60405180910390f35b61008261036b565b60405161008f9190610f2c565b60405180910390f35b6100b260048036038101906100ad91906109b8565b610374565b6040516100bf9190610ef1565b60405180910390f35b6100d0610547565b6040516100dd9190610ead565b60405180910390f35b61010060048036038101906100fb9190610a07565b610678565b005b60606001805480602002602001604051908101604052809291908181526020016000905b8282101561036257838290600052602060002090600702016040518060e00160405290816000820160009054906101000a900473ffffffffffffffffffffffffffffffffffffffff1673ffffffffffffffffffffffffffffffffffffffff1673ffffffffffffffffffffffffffffffffffffffff1681526020016001820160009054906101000a900473ffffffffffffffffffffffffffffffffffffffff1673ffffffffffffffffffffffffffffffffffffffff1673ffffffffffffffffffffffffffffffffffffffff1681526020016002820154815260200160038201805461020f9061117d565b80601f016020809104026020016040519081016040528092919081815260200182805461023b9061117d565b80156102885780601f1061025d57610100808354040283529160200191610288565b820191906000526020600020905b81548152906001019060200180831161026b57829003601f168201915b50505050508152602001600482015481526020016005820180546102ab9061117d565b80601f01602080910402602001604051908101604052809291908181526020018280546102d79061117d565b80156103245780601f106102f957610100808354040283529160200191610324565b820191906000526020600020905b81548152906001019060200180831161030757829003601f168201915b505050505081526020016006820160009054906101000a900463ffffffff1663ffffffff1663ffffffff168152505081526020019060010190610126565b50505050905090565b60008054905090565b60008373ffffffffffffffffffffffffffffffffffffffff163373ffffffffffffffffffffffffffffffffffffffff16146103e4576040517f08c379a00000000000000000000000000000000000000000000000000000000081526004016103db90610f0c565b60405180910390fd5b600260405180606001604052808673ffffffffffffffffffffffffffffffffffffffff1681526020018573ffffffffffffffffffffffffffffffffffffffff1681526020018463ffffffff16815250908060018154018082558091505060019003906000526020600020906002020160009091909190915060008201518160000160006101000a81548173ffffffffffffffffffffffffffffffffffffffff021916908373ffffffffffffffffffffffffffffffffffffffff16021790555060208201518160010160006101000a81548173ffffffffffffffffffffffffffffffffffffffff021916908373ffffffffffffffffffffffffffffffffffffffff16021790555060408201518160010160146101000a81548163ffffffff021916908363ffffffff160217905550505083838360405160200161052893929190610e01565b6040516020818303038152906040528051906020012090509392505050565b60606002805480602002602001604051908101604052809291908181526020016000905b8282101561066f57838290600052602060002090600202016040518060600160405290816000820160009054906101000a900473ffffffffffffffffffffffffffffffffffffffff1673ffffffffffffffffffffffffffffffffffffffff1673ffffffffffffffffffffffffffffffffffffffff1681526020016001820160009054906101000a900473ffffffffffffffffffffffffffffffffffffffff1673ffffffffffffffffffffffffffffffffffffffff1673ffffffffffffffffffffffffffffffffffffffff1681526020016001820160149054906101000a900463ffffffff1663ffffffff1663ffffffff16815250508152602001906001019061056b565b50505050905090565b600160008082825461068a9190611047565b9250508190555060016040518060e001604052803373ffffffffffffffffffffffffffffffffffffffff1681526020018773ffffffffffffffffffffffffffffffffffffffff1681526020018681526020018581526020014281526020018481526020018363ffffffff16815250908060018154018082558091505060019003906000526020600020906007020160009091909190915060008201518160000160006101000a81548173ffffffffffffffffffffffffffffffffffffffff021916908373ffffffffffffffffffffffffffffffffffffffff16021790555060208201518160010160006101000a81548173ffffffffffffffffffffffffffffffffffffffff021916908373ffffffffffffffffffffffffffffffffffffffff1602179055506040820151816002015560608201518160030190805190602001906107d592919061086e565b506080820151816004015560a08201518160050190805190602001906107fc92919061086e565b5060c08201518160060160006101000a81548163ffffffff021916908363ffffffff16021790555050507f416cfa4330a4565f45c2fd2dd4826a83a37443aba2ce6f79477c7355afac35fa33868686428760405161085f96959493929190610e3e565b60405180910390a15050505050565b82805461087a9061117d565b90600052602060002090601f01602090048101928261089c57600085556108e3565b82601f106108b557805160ff19168380011785556108e3565b828001600101855582156108e3579182015b828111156108e25782518255916020019190600101906108c7565b5b5090506108f091906108f4565b5090565b5b8082111561090d5760008160009055506001016108f5565b5090565b600061092461091f84610f78565b610f47565b90508281526020810184848401111561093c57600080fd5b61094784828561113b565b509392505050565b60008135905061095e8161129d565b92915050565b600082601f83011261097557600080fd5b8135610985848260208601610911565b91505092915050565b60008135905061099d816112b4565b92915050565b6000813590506109b2816112cb565b92915050565b6000806000606084860312156109cd57600080fd5b60006109db8682870161094f565b93505060206109ec8682870161094f565b92505060406109fd868287016109a3565b9150509250925092565b600080600080600060a08688031215610a1f57600080fd5b6000610a2d8882890161094f565b9550506020610a3e8882890161098e565b945050604086013567ffffffffffffffff811115610a5b57600080fd5b610a6788828901610964565b935050606086013567ffffffffffffffff811115610a8457600080fd5b610a9088828901610964565b9250506080610aa1888289016109a3565b9150509295509295909350565b6000610aba8383610cd8565b60608301905092915050565b6000610ad28383610d1a565b905092915050565b610ae381611105565b82525050565b610afa610af5826110af565b6111af565b82525050565b610b098161109d565b82525050565b610b188161109d565b82525050565b6000610b2982610fc8565b610b338185611003565b9350610b3e83610fa8565b8060005b83811015610b6f578151610b568882610aae565b9750610b6183610fe9565b925050600181019050610b42565b5085935050505092915050565b6000610b8782610fd3565b610b918185611014565b935083602082028501610ba385610fb8565b8060005b85811015610bdf5784840389528151610bc08582610ac6565b9450610bcb83610ff6565b925060208a01995050600181019050610ba7565b50829750879550505050505092915050565b610bfa816110c1565b82525050565b6000610c0b82610fde565b610c158185611025565b9350610c2581856020860161114a565b610c2e81611272565b840191505092915050565b6000610c4482610fde565b610c4e8185611036565b9350610c5e81856020860161114a565b610c6781611272565b840191505092915050565b6000610c7f602383611036565b91507f4f6e6c79206c6f63616c676f7665726e6d656e742063616e207665726966792060008301527f6a6f6200000000000000000000000000000000000000000000000000000000006020830152604082019050919050565b606082016000820151610cee6000850182610b00565b506020820151610d016020850182610b00565b506040820151610d146040850182610ddb565b50505050565b600060e083016000830151610d326000860182610b00565b506020830151610d456020860182610b00565b506040830151610d586040860182610dbd565b5060608301518482036060860152610d708282610c00565b9150506080830151610d856080860182610dbd565b5060a083015184820360a0860152610d9d8282610c00565b91505060c0830151610db260c0860182610ddb565b508091505092915050565b610dc6816110eb565b82525050565b610dd5816110eb565b82525050565b610de4816110f5565b82525050565b610dfb610df6826110f5565b6111d3565b82525050565b6000610e0d8286610ae9565b601482019150610e1d8285610ae9565b601482019150610e2d8284610dea565b600482019150819050949350505050565b600060c082019050610e536000830189610b0f565b610e606020830188610ada565b610e6d6040830187610dcc565b8181036060830152610e7f8186610c39565b9050610e8e6080830185610dcc565b81810360a0830152610ea08184610c39565b9050979650505050505050565b60006020820190508181036000830152610ec78184610b1e565b905092915050565b60006020820190508181036000830152610ee98184610b7c565b905092915050565b6000602082019050610f066000830184610bf1565b92915050565b60006020820190508181036000830152610f2581610c72565b9050919050565b6000602082019050610f416000830184610dcc565b92915050565b6000604051905081810181811067ffffffffffffffff82111715610f6e57610f6d611243565b5b8060405250919050565b600067ffffffffffffffff821115610f9357610f92611243565b5b601f19601f8301169050602081019050919050565b6000819050602082019050919050565b6000819050602082019050919050565b600081519050919050565b600081519050919050565b600081519050919050565b6000602082019050919050565b6000602082019050919050565b600082825260208201905092915050565b600082825260208201905092915050565b600082825260208201905092915050565b600082825260208201905092915050565b6000611052826110eb565b915061105d836110eb565b9250827fffffffffffffffffffffffffffffffffffffffffffffffffffffffffffffffff03821115611092576110916111e5565b5b828201905092915050565b60006110a8826110cb565b9050919050565b60006110ba826110cb565b9050919050565b6000819050919050565b600073ffffffffffffffffffffffffffffffffffffffff82169050919050565b6000819050919050565b600063ffffffff82169050919050565b600061111082611117565b9050919050565b600061112282611129565b9050919050565b6000611134826110cb565b9050919050565b82818337600083830152505050565b60005b8381101561116857808201518184015260208101905061114d565b83811115611177576000848401525b50505050565b6000600282049050600182168061119557607f821691505b602082108114156111a9576111a8611214565b5b50919050565b60006111ba826111c1565b9050919050565b60006111cc82611290565b9050919050565b60006111de82611283565b9050919050565b7f4e487b7100000000000000000000000000000000000000000000000000000000600052601160045260246000fd5b7f4e487b7100000000000000000000000000000000000000000000000000000000600052602260045260246000fd5b7f4e487b7100000000000000000000000000000000000000000000000000000000600052604160045260246000fd5b6000601f19601f8301169050919050565b60008160e01b9050919050565b60008160601b9050919050565b6112a6816110af565b81146112b157600080fd5b50565b6112bd816110eb565b81146112c857600080fd5b50565b6112d4816110f5565b81146112df57600080fd5b5056fea2646970667358221220c9e22e0bda2d4c5440432b6c1744928636fd06cf89570292c531d080197b4e2464736f6c63430008000033",
  "linkReferences": {},
  "deployedLinkReferences": {}
}