{
  "_format": "hh-sol-artifact-1",
  "contractName": "Transactions",
  "sourceName": "contracts/Transactions.sol",
  "abi": [
    {
      "anonymous": false,
      "inputs": [
        {
          "indexed": false,
          "internalType": "address",
          "name": "from",
          "type": "address"
        },
        {
          "indexed": false,
          "internalType": "address",
          "name": "receiver",
          "type": "address"
        },
        {
          "indexed": false,
          "internalType": "uint256",
          "name": "amount",
          "type": "uint256"
        },
        {
          "indexed": false,
          "internalType": "string",
          "name": "message",
          "type": "string"
        },
        {
          "indexed": false,
          "internalType": "uint256",
          "name": "timestamp",
          "type": "uint256"
        },
        {
          "indexed": false,
          "internalType": "string",
          "name": "keyword",
          "type": "string"
        }
      ],
      "name": "Transfer",
      "type": "event"
    },
    {
      "inputs": [
        {
          "internalType": "address payable",
          "name": "receiver",
          "type": "address"
        },
        {
          "internalType": "uint256",
          "name": "amount",
          "type": "uint256"
        },
        {
          "internalType": "string",
          "name": "message",
          "type": "string"
        },
        {
          "internalType": "string",
          "name": "keyword",
          "type": "string"
        }
      ],
      "name": "addToBlockchain",
      "outputs": [],
      "stateMutability": "nonpayable",
      "type": "function"
    },
    {
      "inputs": [],
      "name": "getAllJobVerifications",
      "outputs": [
        {
          "components": [
            {
              "internalType": "address",
              "name": "lg",
              "type": "address"
            },
            {
              "internalType": "address",
              "name": "client",
              "type": "address"
            },
            {
              "internalType": "uint32",
              "name": "jobId",
              "type": "uint32"
            }
          ],
          "internalType": "struct Transactions.JobVerification[]",
          "name": "",
          "type": "tuple[]"
        }
      ],
      "stateMutability": "view",
      "type": "function"
    },
    {
      "inputs": [],
      "name": "getAllTransactions",
      "outputs": [
        {
          "components": [
            {
              "internalType": "address",
              "name": "sender",
              "type": "address"
            },
            {
              "internalType": "address",
              "name": "receiver",
              "type": "address"
            },
            {
              "internalType": "uint256",
              "name": "amount",
              "type": "uint256"
            },
            {
              "internalType": "string",
              "name": "message",
              "type": "string"
            },
            {
              "internalType": "uint256",
              "name": "timestamp",
              "type": "uint256"
            },
            {
              "internalType": "string",
              "name": "keyword",
              "type": "string"
            }
          ],
          "internalType": "struct Transactions.TransferStruct[]",
          "name": "",
          "type": "tuple[]"
        }
      ],
      "stateMutability": "view",
      "type": "function"
    },
    {
      "inputs": [],
      "name": "getTransactionCount",
      "outputs": [
        {
          "internalType": "uint256",
          "name": "",
          "type": "uint256"
        }
      ],
      "stateMutability": "view",
      "type": "function"
    },
    {
      "inputs": [
        {
          "internalType": "address",
          "name": "lg",
          "type": "address"
        },
        {
          "internalType": "address",
          "name": "client",
          "type": "address"
        },
        {
          "internalType": "uint32",
          "name": "jobId",
          "type": "uint32"
        }
      ],
      "name": "verifyJob",
      "outputs": [],
      "stateMutability": "nonpayable",
      "type": "function"
    }
  ],
  "bytecode": "0x608060405234801561001057600080fd5b50611346806100206000396000f3fe608060405234801561001057600080fd5b50600436106100575760003560e01c806327506f531461005c5780632e7700f01461007a5780635a45705014610098578063915456da146100b4578063cc2d7ead146100d2575b600080fd5b6100646100ee565b6040516100719190610ef2565b60405180910390f35b610082610331565b60405161008f9190610f54565b60405180910390f35b6100b260048036038101906100ad9190610acf565b61033a565b005b6100bc6104dc565b6040516100c99190610ed0565b60405180910390f35b6100ec60048036038101906100e79190610a3c565b61060d565b005b60606001805480602002602001604051908101604052809291908181526020016000905b8282101561032857838290600052602060002090600602016040518060c00160405290816000820160009054906101000a900473ffffffffffffffffffffffffffffffffffffffff1673ffffffffffffffffffffffffffffffffffffffff1673ffffffffffffffffffffffffffffffffffffffff1681526020016001820160009054906101000a900473ffffffffffffffffffffffffffffffffffffffff1673ffffffffffffffffffffffffffffffffffffffff1673ffffffffffffffffffffffffffffffffffffffff168152602001600282015481526020016003820180546101fb9061119b565b80601f01602080910402602001604051908101604052809291908181526020018280546102279061119b565b80156102745780601f1061024957610100808354040283529160200191610274565b820191906000526020600020905b81548152906001019060200180831161025757829003601f168201915b50505050508152602001600482015481526020016005820180546102979061119b565b80601f01602080910402602001604051908101604052809291908181526020018280546102c39061119b565b80156103105780601f106102e557610100808354040283529160200191610310565b820191906000526020600020905b8154815290600101906020018083116102f357829003601f168201915b50505050508152505081526020019060010190610112565b50505050905090565b60008054905090565b8273ffffffffffffffffffffffffffffffffffffffff163373ffffffffffffffffffffffffffffffffffffffff16146103a8576040517f08c379a000000000000000000000000000000000000000000000000000000000815260040161039f90610f34565b60405180910390fd5b600260405180606001604052808573ffffffffffffffffffffffffffffffffffffffff1681526020018473ffffffffffffffffffffffffffffffffffffffff1681526020018363ffffffff16815250908060018154018082558091505060019003906000526020600020906002020160009091909190915060008201518160000160006101000a81548173ffffffffffffffffffffffffffffffffffffffff021916908373ffffffffffffffffffffffffffffffffffffffff16021790555060208201518160010160006101000a81548173ffffffffffffffffffffffffffffffffffffffff021916908373ffffffffffffffffffffffffffffffffffffffff16021790555060408201518160010160146101000a81548163ffffffff021916908363ffffffff1602179055505050505050565b60606002805480602002602001604051908101604052809291908181526020016000905b8282101561060457838290600052602060002090600202016040518060600160405290816000820160009054906101000a900473ffffffffffffffffffffffffffffffffffffffff1673ffffffffffffffffffffffffffffffffffffffff1673ffffffffffffffffffffffffffffffffffffffff1681526020016001820160009054906101000a900473ffffffffffffffffffffffffffffffffffffffff1673ffffffffffffffffffffffffffffffffffffffff1673ffffffffffffffffffffffffffffffffffffffff1681526020016001820160149054906101000a900463ffffffff1663ffffffff1663ffffffff168152505081526020019060010190610500565b50505050905090565b6000805b6002805490508110156106d9573373ffffffffffffffffffffffffffffffffffffffff166002828154811061066f577f4e487b7100000000000000000000000000000000000000000000000000000000600052603260045260246000fd5b906000526020600020906002020160000160009054906101000a900473ffffffffffffffffffffffffffffffffffffffff1673ffffffffffffffffffffffffffffffffffffffff1614156106c657600191506106d9565b80806106d1906111cd565b915050610611565b508061071a576040517f08c379a000000000000000000000000000000000000000000000000000000000815260040161071190610f14565b60405180910390fd5b600160008082825461072c919061106f565b9250508190555060016040518060c001604052803373ffffffffffffffffffffffffffffffffffffffff1681526020018773ffffffffffffffffffffffffffffffffffffffff16815260200186815260200185815260200142815260200184815250908060018154018082558091505060019003906000526020600020906006020160009091909190915060008201518160000160006101000a81548173ffffffffffffffffffffffffffffffffffffffff021916908373ffffffffffffffffffffffffffffffffffffffff16021790555060208201518160010160006101000a81548173ffffffffffffffffffffffffffffffffffffffff021916908373ffffffffffffffffffffffffffffffffffffffff16021790555060408201518160020155606082015181600301908051906020019061086b9291906108dd565b506080820151816004015560a08201518160050190805190602001906108929291906108dd565b5050507f416cfa4330a4565f45c2fd2dd4826a83a37443aba2ce6f79477c7355afac35fa3386868642876040516108ce96959493929190610e61565b60405180910390a15050505050565b8280546108e99061119b565b90600052602060002090601f01602090048101928261090b5760008555610952565b82601f1061092457805160ff1916838001178555610952565b82800160010185558215610952579182015b82811115610951578251825591602001919060010190610936565b5b50905061095f9190610963565b5090565b5b8082111561097c576000816000905550600101610964565b5090565b600061099361098e84610fa0565b610f6f565b9050828152602081018484840111156109ab57600080fd5b6109b6848285611159565b509392505050565b6000813590506109cd816112b4565b92915050565b6000813590506109e2816112cb565b92915050565b600082601f8301126109f957600080fd5b8135610a09848260208601610980565b91505092915050565b600081359050610a21816112e2565b92915050565b600081359050610a36816112f9565b92915050565b60008060008060808587031215610a5257600080fd5b6000610a60878288016109d3565b9450506020610a7187828801610a12565b935050604085013567ffffffffffffffff811115610a8e57600080fd5b610a9a878288016109e8565b925050606085013567ffffffffffffffff811115610ab757600080fd5b610ac3878288016109e8565b91505092959194509250565b600080600060608486031215610ae457600080fd5b6000610af2868287016109be565b9350506020610b03868287016109be565b9250506040610b1486828701610a27565b9150509250925092565b6000610b2a8383610d62565b60608301905092915050565b6000610b428383610da4565b905092915050565b610b5381611123565b82525050565b610b62816110c5565b82525050565b610b71816110c5565b82525050565b6000610b8282610ff0565b610b8c818561102b565b9350610b9783610fd0565b8060005b83811015610bc8578151610baf8882610b1e565b9750610bba83611011565b925050600181019050610b9b565b5085935050505092915050565b6000610be082610ffb565b610bea818561103c565b935083602082028501610bfc85610fe0565b8060005b85811015610c385784840389528151610c198582610b36565b9450610c248361101e565b925060208a01995050600181019050610c00565b50829750879550505050505092915050565b6000610c5582611006565b610c5f818561104d565b9350610c6f818560208601611168565b610c78816112a3565b840191505092915050565b6000610c8e82611006565b610c98818561105e565b9350610ca8818560208601611168565b610cb1816112a3565b840191505092915050565b6000610cc960138361105e565b91507f4a6f62206973206e6f74207665726966696564000000000000000000000000006000830152602082019050919050565b6000610d0960238361105e565b91507f4f6e6c79206c6f63616c676f7665726e6d656e742063616e207665726966792060008301527f6a6f6200000000000000000000000000000000000000000000000000000000006020830152604082019050919050565b606082016000820151610d786000850182610b59565b506020820151610d8b6020850182610b59565b506040820151610d9e6040850182610e52565b50505050565b600060c083016000830151610dbc6000860182610b59565b506020830151610dcf6020860182610b59565b506040830151610de26040860182610e34565b5060608301518482036060860152610dfa8282610c4a565b9150506080830151610e0f6080860182610e34565b5060a083015184820360a0860152610e278282610c4a565b9150508091505092915050565b610e3d81611109565b82525050565b610e4c81611109565b82525050565b610e5b81611113565b82525050565b600060c082019050610e766000830189610b68565b610e836020830188610b4a565b610e906040830187610e43565b8181036060830152610ea28186610c83565b9050610eb16080830185610e43565b81810360a0830152610ec38184610c83565b9050979650505050505050565b60006020820190508181036000830152610eea8184610b77565b905092915050565b60006020820190508181036000830152610f0c8184610bd5565b905092915050565b60006020820190508181036000830152610f2d81610cbc565b9050919050565b60006020820190508181036000830152610f4d81610cfc565b9050919050565b6000602082019050610f696000830184610e43565b92915050565b6000604051905081810181811067ffffffffffffffff82111715610f9657610f95611274565b5b8060405250919050565b600067ffffffffffffffff821115610fbb57610fba611274565b5b601f19601f8301169050602081019050919050565b6000819050602082019050919050565b6000819050602082019050919050565b600081519050919050565b600081519050919050565b600081519050919050565b6000602082019050919050565b6000602082019050919050565b600082825260208201905092915050565b600082825260208201905092915050565b600082825260208201905092915050565b600082825260208201905092915050565b600061107a82611109565b915061108583611109565b9250827fffffffffffffffffffffffffffffffffffffffffffffffffffffffffffffffff038211156110ba576110b9611216565b5b828201905092915050565b60006110d0826110e9565b9050919050565b60006110e2826110e9565b9050919050565b600073ffffffffffffffffffffffffffffffffffffffff82169050919050565b6000819050919050565b600063ffffffff82169050919050565b600061112e82611135565b9050919050565b600061114082611147565b9050919050565b6000611152826110e9565b9050919050565b82818337600083830152505050565b60005b8381101561118657808201518184015260208101905061116b565b83811115611195576000848401525b50505050565b600060028204905060018216806111b357607f821691505b602082108114156111c7576111c6611245565b5b50919050565b60006111d882611109565b91507fffffffffffffffffffffffffffffffffffffffffffffffffffffffffffffffff82141561120b5761120a611216565b5b600182019050919050565b7f4e487b7100000000000000000000000000000000000000000000000000000000600052601160045260246000fd5b7f4e487b7100000000000000000000000000000000000000000000000000000000600052602260045260246000fd5b7f4e487b7100000000000000000000000000000000000000000000000000000000600052604160045260246000fd5b6000601f19601f8301169050919050565b6112bd816110c5565b81146112c857600080fd5b50565b6112d4816110d7565b81146112df57600080fd5b50565b6112eb81611109565b81146112f657600080fd5b50565b61130281611113565b811461130d57600080fd5b5056fea2646970667358221220791a37ecf9914039d0860cb968bfd552fab1bee42e4a5479491edc716e2ab2fb64736f6c63430008000033",
  "linkReferences": {},
  "deployedLinkReferences": {}
}